{
  "_format": "hh-sol-artifact-1",
  "contractName": "NFTMarketplace",
  "sourceName": "contracts/NFTmarketplace.sol",
  "abi": [
    {
      "inputs": [],
      "stateMutability": "nonpayable",
      "type": "constructor"
    },
    {
      "anonymous": false,
      "inputs": [
        {
          "indexed": true,
          "internalType": "address",
          "name": "owner",
          "type": "address"
        },
        {
          "indexed": true,
          "internalType": "address",
          "name": "approved",
          "type": "address"
        },
        {
          "indexed": true,
          "internalType": "uint256",
          "name": "tokenId",
          "type": "uint256"
        }
      ],
      "name": "Approval",
      "type": "event"
    },
    {
      "anonymous": false,
      "inputs": [
        {
          "indexed": true,
          "internalType": "address",
          "name": "owner",
          "type": "address"
        },
        {
          "indexed": true,
          "internalType": "address",
          "name": "operator",
          "type": "address"
        },
        {
          "indexed": false,
          "internalType": "bool",
          "name": "approved",
          "type": "bool"
        }
      ],
      "name": "ApprovalForAll",
      "type": "event"
    },
    {
      "anonymous": false,
      "inputs": [
        {
          "indexed": true,
          "internalType": "uint256",
          "name": "tokenId",
          "type": "uint256"
        },
        {
          "indexed": false,
          "internalType": "address",
          "name": "seller",
          "type": "address"
        },
        {
          "indexed": false,
          "internalType": "address",
          "name": "owner",
          "type": "address"
        },
        {
          "indexed": false,
          "internalType": "uint256",
          "name": "price",
          "type": "uint256"
        },
        {
          "indexed": false,
          "internalType": "bool",
          "name": "sold",
          "type": "bool"
        }
      ],
      "name": "MarketItemCreated",
      "type": "event"
    },
    {
      "anonymous": false,
      "inputs": [
        {
          "indexed": true,
          "internalType": "address",
          "name": "from",
          "type": "address"
        },
        {
          "indexed": true,
          "internalType": "address",
          "name": "to",
          "type": "address"
        },
        {
          "indexed": true,
          "internalType": "uint256",
          "name": "tokenId",
          "type": "uint256"
        }
      ],
      "name": "Transfer",
      "type": "event"
    },
    {
      "inputs": [
        {
          "internalType": "address",
          "name": "to",
          "type": "address"
        },
        {
          "internalType": "uint256",
          "name": "tokenId",
          "type": "uint256"
        }
      ],
      "name": "approve",
      "outputs": [],
      "stateMutability": "nonpayable",
      "type": "function"
    },
    {
      "inputs": [
        {
          "internalType": "address",
          "name": "owner",
          "type": "address"
        }
      ],
      "name": "balanceOf",
      "outputs": [
        {
          "internalType": "uint256",
          "name": "",
          "type": "uint256"
        }
      ],
      "stateMutability": "view",
      "type": "function"
    },
    {
      "inputs": [
        {
          "internalType": "uint256",
          "name": "tokenId",
          "type": "uint256"
        }
      ],
      "name": "createMarketSale",
      "outputs": [],
      "stateMutability": "payable",
      "type": "function"
    },
    {
      "inputs": [
        {
          "internalType": "string",
          "name": "tokenURI",
          "type": "string"
        },
        {
          "internalType": "uint256",
          "name": "price",
          "type": "uint256"
        }
      ],
      "name": "createToken",
      "outputs": [
        {
          "internalType": "uint256",
          "name": "",
          "type": "uint256"
        }
      ],
      "stateMutability": "payable",
      "type": "function"
    },
    {
      "inputs": [],
      "name": "fetchItemsListed",
      "outputs": [
        {
          "components": [
            {
              "internalType": "uint256",
              "name": "tokenId",
              "type": "uint256"
            },
            {
              "internalType": "address payable",
              "name": "seller",
              "type": "address"
            },
            {
              "internalType": "address payable",
              "name": "owner",
              "type": "address"
            },
            {
              "internalType": "uint256",
              "name": "price",
              "type": "uint256"
            },
            {
              "internalType": "bool",
              "name": "sold",
              "type": "bool"
            }
          ],
          "internalType": "struct NFTMarketplace.MarketItem[]",
          "name": "",
          "type": "tuple[]"
        }
      ],
      "stateMutability": "view",
      "type": "function"
    },
    {
      "inputs": [],
      "name": "fetchMarketItem",
      "outputs": [
        {
          "components": [
            {
              "internalType": "uint256",
              "name": "tokenId",
              "type": "uint256"
            },
            {
              "internalType": "address payable",
              "name": "seller",
              "type": "address"
            },
            {
              "internalType": "address payable",
              "name": "owner",
              "type": "address"
            },
            {
              "internalType": "uint256",
              "name": "price",
              "type": "uint256"
            },
            {
              "internalType": "bool",
              "name": "sold",
              "type": "bool"
            }
          ],
          "internalType": "struct NFTMarketplace.MarketItem[]",
          "name": "",
          "type": "tuple[]"
        }
      ],
      "stateMutability": "view",
      "type": "function"
    },
    {
      "inputs": [],
      "name": "fetchMyNFT",
      "outputs": [
        {
          "components": [
            {
              "internalType": "uint256",
              "name": "tokenId",
              "type": "uint256"
            },
            {
              "internalType": "address payable",
              "name": "seller",
              "type": "address"
            },
            {
              "internalType": "address payable",
              "name": "owner",
              "type": "address"
            },
            {
              "internalType": "uint256",
              "name": "price",
              "type": "uint256"
            },
            {
              "internalType": "bool",
              "name": "sold",
              "type": "bool"
            }
          ],
          "internalType": "struct NFTMarketplace.MarketItem[]",
          "name": "",
          "type": "tuple[]"
        }
      ],
      "stateMutability": "view",
      "type": "function"
    },
    {
      "inputs": [
        {
          "internalType": "uint256",
          "name": "tokenId",
          "type": "uint256"
        }
      ],
      "name": "getApproved",
      "outputs": [
        {
          "internalType": "address",
          "name": "",
          "type": "address"
        }
      ],
      "stateMutability": "view",
      "type": "function"
    },
    {
      "inputs": [],
      "name": "getListingPrice",
      "outputs": [
        {
          "internalType": "uint256",
          "name": "",
          "type": "uint256"
        }
      ],
      "stateMutability": "view",
      "type": "function"
    },
    {
      "inputs": [
        {
          "internalType": "address",
          "name": "owner",
          "type": "address"
        },
        {
          "internalType": "address",
          "name": "operator",
          "type": "address"
        }
      ],
      "name": "isApprovedForAll",
      "outputs": [
        {
          "internalType": "bool",
          "name": "",
          "type": "bool"
        }
      ],
      "stateMutability": "view",
      "type": "function"
    },
    {
      "inputs": [],
      "name": "name",
      "outputs": [
        {
          "internalType": "string",
          "name": "",
          "type": "string"
        }
      ],
      "stateMutability": "view",
      "type": "function"
    },
    {
      "inputs": [
        {
          "internalType": "uint256",
          "name": "tokenId",
          "type": "uint256"
        }
      ],
      "name": "ownerOf",
      "outputs": [
        {
          "internalType": "address",
          "name": "",
          "type": "address"
        }
      ],
      "stateMutability": "view",
      "type": "function"
    },
    {
      "inputs": [
        {
          "internalType": "uint256",
          "name": "tokenId",
          "type": "uint256"
        },
        {
          "internalType": "uint256",
          "name": "price",
          "type": "uint256"
        }
      ],
      "name": "reSellToken",
      "outputs": [],
      "stateMutability": "payable",
      "type": "function"
    },
    {
      "inputs": [
        {
          "internalType": "address",
          "name": "from",
          "type": "address"
        },
        {
          "internalType": "address",
          "name": "to",
          "type": "address"
        },
        {
          "internalType": "uint256",
          "name": "tokenId",
          "type": "uint256"
        }
      ],
      "name": "safeTransferFrom",
      "outputs": [],
      "stateMutability": "nonpayable",
      "type": "function"
    },
    {
      "inputs": [
        {
          "internalType": "address",
          "name": "from",
          "type": "address"
        },
        {
          "internalType": "address",
          "name": "to",
          "type": "address"
        },
        {
          "internalType": "uint256",
          "name": "tokenId",
          "type": "uint256"
        },
        {
          "internalType": "bytes",
          "name": "data",
          "type": "bytes"
        }
      ],
      "name": "safeTransferFrom",
      "outputs": [],
      "stateMutability": "nonpayable",
      "type": "function"
    },
    {
      "inputs": [
        {
          "internalType": "address",
          "name": "operator",
          "type": "address"
        },
        {
          "internalType": "bool",
          "name": "approved",
          "type": "bool"
        }
      ],
      "name": "setApprovalForAll",
      "outputs": [],
      "stateMutability": "nonpayable",
      "type": "function"
    },
    {
      "inputs": [
        {
          "internalType": "bytes4",
          "name": "interfaceId",
          "type": "bytes4"
        }
      ],
      "name": "supportsInterface",
      "outputs": [
        {
          "internalType": "bool",
          "name": "",
          "type": "bool"
        }
      ],
      "stateMutability": "view",
      "type": "function"
    },
    {
      "inputs": [],
      "name": "symbol",
      "outputs": [
        {
          "internalType": "string",
          "name": "",
          "type": "string"
        }
      ],
      "stateMutability": "view",
      "type": "function"
    },
    {
      "inputs": [
        {
          "internalType": "uint256",
          "name": "tokenId",
          "type": "uint256"
        }
      ],
      "name": "tokenURI",
      "outputs": [
        {
          "internalType": "string",
          "name": "",
          "type": "string"
        }
      ],
      "stateMutability": "view",
      "type": "function"
    },
    {
      "inputs": [
        {
          "internalType": "address",
          "name": "from",
          "type": "address"
        },
        {
          "internalType": "address",
          "name": "to",
          "type": "address"
        },
        {
          "internalType": "uint256",
          "name": "tokenId",
          "type": "uint256"
        }
      ],
      "name": "transferFrom",
      "outputs": [],
      "stateMutability": "nonpayable",
      "type": "function"
    },
    {
      "inputs": [
        {
          "internalType": "uint256",
          "name": "_listingPrice",
          "type": "uint256"
        }
      ],
      "name": "updateListPrice",
      "outputs": [],
      "stateMutability": "payable",
      "type": "function"
    }
  ],
  "bytecode": "0x60806040526658d15e176280006009553480156200001c57600080fd5b506040518060400160405280601481526020017f4e4654204d657461766172736520546f6b656e200000000000000000000000008152506040518060400160405280600581526020017f4d594e465400000000000000000000000000000000000000000000000000000081525081600090816200009a919062000355565b508060019081620000ac919062000355565b5050503373ffffffffffffffffffffffffffffffffffffffff16600a60009054906101000a905050506200043c565b600081519050919050565b7f4e487b7100000000000000000000000000000000000000000000000000000000600052604160045260246000fd5b7f4e487b7100000000000000000000000000000000000000000000000000000000600052602260045260246000fd5b600060028204905060018216806200015d57607f821691505b60208210810362000173576200017262000115565b5b50919050565b60008190508160005260206000209050919050565b60006020601f8301049050919050565b600082821b905092915050565b600060088302620001dd7fffffffffffffffffffffffffffffffffffffffffffffffffffffffffffffffff826200019e565b620001e986836200019e565b95508019841693508086168417925050509392505050565b6000819050919050565b6000819050919050565b600062000236620002306200022a8462000201565b6200020b565b62000201565b9050919050565b6000819050919050565b620002528362000215565b6200026a62000261826200023d565b848454620001ab565b825550505050565b600090565b6200028162000272565b6200028e81848462000247565b505050565b5b81811015620002b657620002aa60008262000277565b60018101905062000294565b5050565b601f8211156200030557620002cf8162000179565b620002da846200018e565b81016020851015620002ea578190505b62000302620002f9856200018e565b83018262000293565b50505b505050565b600082821c905092915050565b60006200032a600019846008026200030a565b1980831691505092915050565b600062000345838362000317565b9150826002028217905092915050565b6200036082620000db565b67ffffffffffffffff8111156200037c576200037b620000e6565b5b62000388825462000144565b62000395828285620002ba565b600060209050601f831160018114620003cd5760008415620003b8578287015190505b620003c4858262000337565b86555062000434565b601f198416620003dd8662000179565b60005b828110156200040757848901518255600182019150602085019450602081019050620003e0565b8683101562000427578489015162000423601f89168262000317565b8355505b6001600288020188555050505b505050505050565b6142c3806200044c6000396000f3fe60806040526004361061012a5760003560e01c806372b3b620116100ab578063b88d4fde1161006f578063b88d4fde146103ea578063be9af53614610413578063c18763f71461042f578063c322579c1461045a578063c87b56dd14610476578063e985e9c5146104b35761012a565b806372b3b6201461031f57806385535b251461034f5780638fafd0211461036b57806395d89b4114610396578063a22cb465146103c15761012a565b806323b872dd116100f257806323b872dd1461022857806342842e0e1461025157806345f8fa801461027a5780636352211e146102a557806370a08231146102e25761012a565b806301ffc9a71461012f57806306fdde031461016c578063081812fc14610197578063095ea7b3146101d457806312e85585146101fd575b600080fd5b34801561013b57600080fd5b5061015660048036038101906101519190612b87565b6104f0565b6040516101639190612bcf565b60405180910390f35b34801561017857600080fd5b506101816105d2565b60405161018e9190612c7a565b60405180910390f35b3480156101a357600080fd5b506101be60048036038101906101b99190612cd2565b610664565b6040516101cb9190612d40565b60405180910390f35b3480156101e057600080fd5b506101fb60048036038101906101f69190612d87565b6106aa565b005b34801561020957600080fd5b506102126107c1565b60405161021f9190612dd6565b60405180910390f35b34801561023457600080fd5b5061024f600480360381019061024a9190612df1565b6107cb565b005b34801561025d57600080fd5b5061027860048036038101906102739190612df1565b61082b565b005b34801561028657600080fd5b5061028f61084b565b60405161029c9190612f9a565b60405180910390f35b3480156102b157600080fd5b506102cc60048036038101906102c79190612cd2565b610b37565b6040516102d99190612d40565b60405180910390f35b3480156102ee57600080fd5b5061030960048036038101906103049190612fbc565b610bbd565b6040516103169190612dd6565b60405180910390f35b6103396004803603810190610334919061311e565b610c74565b6040516103469190612dd6565b60405180910390f35b6103696004803603810190610364919061317a565b610cb6565b005b34801561037757600080fd5b50610380610eab565b60405161038d9190612f9a565b60405180910390f35b3480156103a257600080fd5b506103ab611113565b6040516103b89190612c7a565b60405180910390f35b3480156103cd57600080fd5b506103e860048036038101906103e391906131e6565b6111a5565b005b3480156103f657600080fd5b50610411600480360381019061040c91906132c7565b6111bb565b005b61042d60048036038101906104289190612cd2565b61121d565b005b34801561043b57600080fd5b50610444611455565b6040516104519190612f9a565b60405180910390f35b610474600480360381019061046f9190612cd2565b611741565b005b34801561048257600080fd5b5061049d60048036038101906104989190612cd2565b61174b565b6040516104aa9190612c7a565b60405180910390f35b3480156104bf57600080fd5b506104da60048036038101906104d5919061334a565b61185d565b6040516104e79190612bcf565b60405180910390f35b60007f80ac58cd000000000000000000000000000000000000000000000000000000007bffffffffffffffffffffffffffffffffffffffffffffffffffffffff1916827bffffffffffffffffffffffffffffffffffffffffffffffffffffffff191614806105bb57507f5b5e139f000000000000000000000000000000000000000000000000000000007bffffffffffffffffffffffffffffffffffffffffffffffffffffffff1916827bffffffffffffffffffffffffffffffffffffffffffffffffffffffff1916145b806105cb57506105ca826118f1565b5b9050919050565b6060600080546105e1906133b9565b80601f016020809104026020016040519081016040528092919081815260200182805461060d906133b9565b801561065a5780601f1061062f5761010080835404028352916020019161065a565b820191906000526020600020905b81548152906001019060200180831161063d57829003601f168201915b5050505050905090565b600061066f8261195b565b6004600083815260200190815260200160002060009054906101000a900473ffffffffffffffffffffffffffffffffffffffff169050919050565b60006106b582610b37565b90508073ffffffffffffffffffffffffffffffffffffffff168373ffffffffffffffffffffffffffffffffffffffff1603610725576040517f08c379a000000000000000000000000000000000000000000000000000000000815260040161071c9061345c565b60405180910390fd5b8073ffffffffffffffffffffffffffffffffffffffff166107446119a6565b73ffffffffffffffffffffffffffffffffffffffff16148061077357506107728161076d6119a6565b61185d565b5b6107b2576040517f08c379a00000000000000000000000000000000000000000000000000000000081526004016107a9906134ee565b60405180910390fd5b6107bc83836119ae565b505050565b6000600954905090565b6107dc6107d66119a6565b82611a67565b61081b576040517f08c379a000000000000000000000000000000000000000000000000000000000815260040161081290613580565b60405180910390fd5b610826838383611afc565b505050565b610846838383604051806020016040528060008152506111bb565b505050565b606060006108596007611df5565b905060008060005b83811015610901573373ffffffffffffffffffffffffffffffffffffffff16600b600060018461089191906135cf565b815260200190815260200160002060010160009054906101000a900473ffffffffffffffffffffffffffffffffffffffff1673ffffffffffffffffffffffffffffffffffffffff16036108ee576001836108eb91906135cf565b92505b80806108f990613603565b915050610861565b5060008267ffffffffffffffff81111561091e5761091d612ff3565b5b60405190808252806020026020018201604052801561095757816020015b610944612abe565b81526020019060019003908161093c5790505b50905060005b84811015610b2c573373ffffffffffffffffffffffffffffffffffffffff16600b600060018461098d91906135cf565b815260200190815260200160002060010160009054906101000a900473ffffffffffffffffffffffffffffffffffffffff1673ffffffffffffffffffffffffffffffffffffffff1603610b195760006001826109e991906135cf565b90506000600b60008381526020019081526020016000209050806040518060a0016040529081600082015481526020016001820160009054906101000a900473ffffffffffffffffffffffffffffffffffffffff1673ffffffffffffffffffffffffffffffffffffffff1673ffffffffffffffffffffffffffffffffffffffff1681526020016002820160009054906101000a900473ffffffffffffffffffffffffffffffffffffffff1673ffffffffffffffffffffffffffffffffffffffff1673ffffffffffffffffffffffffffffffffffffffff168152602001600382015481526020016004820160009054906101000a900460ff161515151581525050848681518110610afc57610afb61364b565b5b6020026020010181905250600185610b1491906135cf565b945050505b8080610b2490613603565b91505061095d565b508094505050505090565b600080610b4383611e03565b9050600073ffffffffffffffffffffffffffffffffffffffff168173ffffffffffffffffffffffffffffffffffffffff1603610bb4576040517f08c379a0000000000000000000000000000000000000000000000000000000008152600401610bab906136c6565b60405180910390fd5b80915050919050565b60008073ffffffffffffffffffffffffffffffffffffffff168273ffffffffffffffffffffffffffffffffffffffff1603610c2d576040517f08c379a0000000000000000000000000000000000000000000000000000000008152600401610c2490613758565b60405180910390fd5b600360008373ffffffffffffffffffffffffffffffffffffffff1673ffffffffffffffffffffffffffffffffffffffff168152602001908152602001600020549050919050565b6000610c806007611e40565b6000610c8c6007611df5565b9050610c983382611e56565b610ca28185612073565b610cac81846120e0565b8091505092915050565b3373ffffffffffffffffffffffffffffffffffffffff16600b600084815260200190815260200160002060020160009054906101000a900473ffffffffffffffffffffffffffffffffffffffff1673ffffffffffffffffffffffffffffffffffffffff1614610d5a576040517f08c379a0000000000000000000000000000000000000000000000000000000008152600401610d51906137ea565b60405180910390fd5b6009543414610d9e576040517f08c379a0000000000000000000000000000000000000000000000000000000008152600401610d959061387c565b60405180910390fd5b6000600b600084815260200190815260200160002060040160006101000a81548160ff02191690831515021790555080600b60008481526020019081526020016000206003018190555033600b600084815260200190815260200160002060010160006101000a81548173ffffffffffffffffffffffffffffffffffffffff021916908373ffffffffffffffffffffffffffffffffffffffff16021790555030600b600084815260200190815260200160002060020160006101000a81548173ffffffffffffffffffffffffffffffffffffffff021916908373ffffffffffffffffffffffffffffffffffffffff160217905550610e9c60086122e3565b610ea7333084611afc565b5050565b60606000610eb96007611df5565b90506000610ec76008611df5565b610ed16007611df5565b610edb919061389c565b90506000808267ffffffffffffffff811115610efa57610ef9612ff3565b5b604051908082528060200260200182016040528015610f3357816020015b610f20612abe565b815260200190600190039081610f185790505b50905060005b84811015611108573073ffffffffffffffffffffffffffffffffffffffff16600b6000600184610f6991906135cf565b815260200190815260200160002060020160009054906101000a900473ffffffffffffffffffffffffffffffffffffffff1673ffffffffffffffffffffffffffffffffffffffff16036110f5576000600182610fc591906135cf565b90506000600b60008381526020019081526020016000209050806040518060a0016040529081600082015481526020016001820160009054906101000a900473ffffffffffffffffffffffffffffffffffffffff1673ffffffffffffffffffffffffffffffffffffffff1673ffffffffffffffffffffffffffffffffffffffff1681526020016002820160009054906101000a900473ffffffffffffffffffffffffffffffffffffffff1673ffffffffffffffffffffffffffffffffffffffff1673ffffffffffffffffffffffffffffffffffffffff168152602001600382015481526020016004820160009054906101000a900460ff1615151515815250508486815181106110d8576110d761364b565b5b60200260200101819052506001856110f091906135cf565b945050505b808061110090613603565b915050610f39565b508094505050505090565b606060018054611122906133b9565b80601f016020809104026020016040519081016040528092919081815260200182805461114e906133b9565b801561119b5780601f106111705761010080835404028352916020019161119b565b820191906000526020600020905b81548152906001019060200180831161117e57829003601f168201915b5050505050905090565b6111b76111b06119a6565b838361233f565b5050565b6111cc6111c66119a6565b83611a67565b61120b576040517f08c379a000000000000000000000000000000000000000000000000000000000815260040161120290613580565b60405180910390fd5b611217848484846124ab565b50505050565b6000600b600083815260200190815260200160002060030154905080341461127a576040517f08c379a000000000000000000000000000000000000000000000000000000000815260040161127190613942565b60405180910390fd5b33600b600084815260200190815260200160002060020160006101000a81548173ffffffffffffffffffffffffffffffffffffffff021916908373ffffffffffffffffffffffffffffffffffffffff1602179055506001600b600084815260200190815260200160002060040160006101000a81548160ff0219169083151502179055506000600b600084815260200190815260200160002060020160006101000a81548173ffffffffffffffffffffffffffffffffffffffff021916908373ffffffffffffffffffffffffffffffffffffffff16021790555061135e6008611e40565b611369303384611afc565b600a60009054906101000a900473ffffffffffffffffffffffffffffffffffffffff1673ffffffffffffffffffffffffffffffffffffffff166108fc6009549081150290604051600060405180830381858888f193505050501580156113d3573d6000803e3d6000fd5b50600b600083815260200190815260200160002060010160009054906101000a900473ffffffffffffffffffffffffffffffffffffffff1673ffffffffffffffffffffffffffffffffffffffff166108fc349081150290604051600060405180830381858888f19350505050158015611450573d6000803e3d6000fd5b505050565b606060006114636007611df5565b905060008060005b8381101561150b573373ffffffffffffffffffffffffffffffffffffffff16600b600060018461149b91906135cf565b815260200190815260200160002060020160009054906101000a900473ffffffffffffffffffffffffffffffffffffffff1673ffffffffffffffffffffffffffffffffffffffff16036114f8576001836114f591906135cf565b92505b808061150390613603565b91505061146b565b5060008267ffffffffffffffff81111561152857611527612ff3565b5b60405190808252806020026020018201604052801561156157816020015b61154e612abe565b8152602001906001900390816115465790505b50905060005b84811015611736573373ffffffffffffffffffffffffffffffffffffffff16600b600060018461159791906135cf565b815260200190815260200160002060020160009054906101000a900473ffffffffffffffffffffffffffffffffffffffff1673ffffffffffffffffffffffffffffffffffffffff16036117235760006001826115f391906135cf565b90506000600b60008381526020019081526020016000209050806040518060a0016040529081600082015481526020016001820160009054906101000a900473ffffffffffffffffffffffffffffffffffffffff1673ffffffffffffffffffffffffffffffffffffffff1673ffffffffffffffffffffffffffffffffffffffff1681526020016002820160009054906101000a900473ffffffffffffffffffffffffffffffffffffffff1673ffffffffffffffffffffffffffffffffffffffff1673ffffffffffffffffffffffffffffffffffffffff168152602001600382015481526020016004820160009054906101000a900460ff1615151515815250508486815181106117065761170561364b565b5b602002602001018190525060018561171e91906135cf565b945050505b808061172e90613603565b915050611567565b508094505050505090565b8060098190555050565b60606117568261195b565b6000600660008481526020019081526020016000208054611776906133b9565b80601f01602080910402602001604051908101604052809291908181526020018280546117a2906133b9565b80156117ef5780601f106117c4576101008083540402835291602001916117ef565b820191906000526020600020905b8154815290600101906020018083116117d257829003601f168201915b505050505090506000611800612507565b90506000815103611815578192505050611858565b60008251111561184a57808260405160200161183292919061399e565b60405160208183030381529060405292505050611858565b6118538461251e565b925050505b919050565b6000600560008473ffffffffffffffffffffffffffffffffffffffff1673ffffffffffffffffffffffffffffffffffffffff16815260200190815260200160002060008373ffffffffffffffffffffffffffffffffffffffff1673ffffffffffffffffffffffffffffffffffffffff16815260200190815260200160002060009054906101000a900460ff16905092915050565b60007f01ffc9a7000000000000000000000000000000000000000000000000000000007bffffffffffffffffffffffffffffffffffffffffffffffffffffffff1916827bffffffffffffffffffffffffffffffffffffffffffffffffffffffff1916149050919050565b61196481612586565b6119a3576040517f08c379a000000000000000000000000000000000000000000000000000000000815260040161199a906136c6565b60405180910390fd5b50565b600033905090565b816004600083815260200190815260200160002060006101000a81548173ffffffffffffffffffffffffffffffffffffffff021916908373ffffffffffffffffffffffffffffffffffffffff160217905550808273ffffffffffffffffffffffffffffffffffffffff16611a2183610b37565b73ffffffffffffffffffffffffffffffffffffffff167f8c5be1e5ebec7d5bd14f71427d1e84f3dd0314c0f7b2291e5b200ac8c7c3b92560405160405180910390a45050565b600080611a7383610b37565b90508073ffffffffffffffffffffffffffffffffffffffff168473ffffffffffffffffffffffffffffffffffffffff161480611ab55750611ab4818561185d565b5b80611af357508373ffffffffffffffffffffffffffffffffffffffff16611adb84610664565b73ffffffffffffffffffffffffffffffffffffffff16145b91505092915050565b8273ffffffffffffffffffffffffffffffffffffffff16611b1c82610b37565b73ffffffffffffffffffffffffffffffffffffffff1614611b72576040517f08c379a0000000000000000000000000000000000000000000000000000000008152600401611b6990613a34565b60405180910390fd5b600073ffffffffffffffffffffffffffffffffffffffff168273ffffffffffffffffffffffffffffffffffffffff1603611be1576040517f08c379a0000000000000000000000000000000000000000000000000000000008152600401611bd890613ac6565b60405180910390fd5b611bee83838360016125c7565b8273ffffffffffffffffffffffffffffffffffffffff16611c0e82610b37565b73ffffffffffffffffffffffffffffffffffffffff1614611c64576040517f08c379a0000000000000000000000000000000000000000000000000000000008152600401611c5b90613a34565b60405180910390fd5b6004600082815260200190815260200160002060006101000a81549073ffffffffffffffffffffffffffffffffffffffff02191690556001600360008573ffffffffffffffffffffffffffffffffffffffff1673ffffffffffffffffffffffffffffffffffffffff168152602001908152602001600020600082825403925050819055506001600360008473ffffffffffffffffffffffffffffffffffffffff1673ffffffffffffffffffffffffffffffffffffffff16815260200190815260200160002060008282540192505081905550816002600083815260200190815260200160002060006101000a81548173ffffffffffffffffffffffffffffffffffffffff021916908373ffffffffffffffffffffffffffffffffffffffff160217905550808273ffffffffffffffffffffffffffffffffffffffff168473ffffffffffffffffffffffffffffffffffffffff167fddf252ad1be2c89b69c2b068fc378daa952ba7f163c4a11628f55a4df523b3ef60405160405180910390a4611df083838360016126ed565b505050565b600081600001549050919050565b60006002600083815260200190815260200160002060009054906101000a900473ffffffffffffffffffffffffffffffffffffffff169050919050565b6001816000016000828254019250508190555050565b600073ffffffffffffffffffffffffffffffffffffffff168273ffffffffffffffffffffffffffffffffffffffff1603611ec5576040517f08c379a0000000000000000000000000000000000000000000000000000000008152600401611ebc90613b32565b60405180910390fd5b611ece81612586565b15611f0e576040517f08c379a0000000000000000000000000000000000000000000000000000000008152600401611f0590613b9e565b60405180910390fd5b611f1c6000838360016125c7565b611f2581612586565b15611f65576040517f08c379a0000000000000000000000000000000000000000000000000000000008152600401611f5c90613b9e565b60405180910390fd5b6001600360008473ffffffffffffffffffffffffffffffffffffffff1673ffffffffffffffffffffffffffffffffffffffff16815260200190815260200160002060008282540192505081905550816002600083815260200190815260200160002060006101000a81548173ffffffffffffffffffffffffffffffffffffffff021916908373ffffffffffffffffffffffffffffffffffffffff160217905550808273ffffffffffffffffffffffffffffffffffffffff16600073ffffffffffffffffffffffffffffffffffffffff167fddf252ad1be2c89b69c2b068fc378daa952ba7f163c4a11628f55a4df523b3ef60405160405180910390a461206f6000838360016126ed565b5050565b61207c82612586565b6120bb576040517f08c379a00000000000000000000000000000000000000000000000000000000081526004016120b290613c30565b60405180910390fd5b806006600084815260200190815260200160002090816120db9190613dfc565b505050565b60008111612123576040517f08c379a000000000000000000000000000000000000000000000000000000000815260040161211a90613f1a565b60405180910390fd5b6009543414612167576040517f08c379a000000000000000000000000000000000000000000000000000000000815260040161215e90613fac565b60405180910390fd5b6040518060a001604052808381526020013373ffffffffffffffffffffffffffffffffffffffff1681526020013073ffffffffffffffffffffffffffffffffffffffff16815260200182815260200160001515815250600b60008481526020019081526020016000206000820151816000015560208201518160010160006101000a81548173ffffffffffffffffffffffffffffffffffffffff021916908373ffffffffffffffffffffffffffffffffffffffff16021790555060408201518160020160006101000a81548173ffffffffffffffffffffffffffffffffffffffff021916908373ffffffffffffffffffffffffffffffffffffffff1602179055506060820151816003015560808201518160040160006101000a81548160ff0219169083151502179055509050506122a0333084611afc565b817fb640004f1d14576d0c209e240cad0410e0d8c0c33a09375861fbadae2588a98d33308460006040516122d79493929190613fcc565b60405180910390a25050565b6000816000015490506000811161232f576040517f08c379a00000000000000000000000000000000000000000000000000000000081526004016123269061405d565b60405180910390fd5b6001810382600001819055505050565b8173ffffffffffffffffffffffffffffffffffffffff168373ffffffffffffffffffffffffffffffffffffffff16036123ad576040517f08c379a00000000000000000000000000000000000000000000000000000000081526004016123a4906140c9565b60405180910390fd5b80600560008573ffffffffffffffffffffffffffffffffffffffff1673ffffffffffffffffffffffffffffffffffffffff16815260200190815260200160002060008473ffffffffffffffffffffffffffffffffffffffff1673ffffffffffffffffffffffffffffffffffffffff16815260200190815260200160002060006101000a81548160ff0219169083151502179055508173ffffffffffffffffffffffffffffffffffffffff168373ffffffffffffffffffffffffffffffffffffffff167f17307eab39ab6107e8899845ad3d59bd9653f200f220920489ca2b5937696c318360405161249e9190612bcf565b60405180910390a3505050565b6124b6848484611afc565b6124c2848484846126f3565b612501576040517f08c379a00000000000000000000000000000000000000000000000000000000081526004016124f89061415b565b60405180910390fd5b50505050565b606060405180602001604052806000815250905090565b60606125298261195b565b6000612533612507565b90506000815111612553576040518060200160405280600081525061257e565b8061255d8461287a565b60405160200161256e92919061399e565b6040516020818303038152906040525b915050919050565b60008073ffffffffffffffffffffffffffffffffffffffff166125a883611e03565b73ffffffffffffffffffffffffffffffffffffffff1614159050919050565b60018111156126e757600073ffffffffffffffffffffffffffffffffffffffff168473ffffffffffffffffffffffffffffffffffffffff161461265b5780600360008673ffffffffffffffffffffffffffffffffffffffff1673ffffffffffffffffffffffffffffffffffffffff1681526020019081526020016000206000828254612653919061389c565b925050819055505b600073ffffffffffffffffffffffffffffffffffffffff168373ffffffffffffffffffffffffffffffffffffffff16146126e65780600360008573ffffffffffffffffffffffffffffffffffffffff1673ffffffffffffffffffffffffffffffffffffffff16815260200190815260200160002060008282546126de91906135cf565b925050819055505b5b50505050565b50505050565b60006127148473ffffffffffffffffffffffffffffffffffffffff16612948565b1561286d578373ffffffffffffffffffffffffffffffffffffffff1663150b7a0261273d6119a6565b8786866040518563ffffffff1660e01b815260040161275f94939291906141d0565b6020604051808303816000875af192505050801561279b57506040513d601f19601f820116820180604052508101906127989190614231565b60015b61281d573d80600081146127cb576040519150601f19603f3d011682016040523d82523d6000602084013e6127d0565b606091505b506000815103612815576040517f08c379a000000000000000000000000000000000000000000000000000000000815260040161280c9061415b565b60405180910390fd5b805181602001fd5b63150b7a0260e01b7bffffffffffffffffffffffffffffffffffffffffffffffffffffffff1916817bffffffffffffffffffffffffffffffffffffffffffffffffffffffff191614915050612872565b600190505b949350505050565b6060600060016128898461296b565b01905060008167ffffffffffffffff8111156128a8576128a7612ff3565b5b6040519080825280601f01601f1916602001820160405280156128da5781602001600182028036833780820191505090505b509050600082602001820190505b60011561293d578080600190039150507f3031323334353637383961626364656600000000000000000000000000000000600a86061a8153600a85816129315761293061425e565b5b049450600085036128e8575b819350505050919050565b6000808273ffffffffffffffffffffffffffffffffffffffff163b119050919050565b600080600090507a184f03e93ff9f4daa797ed6e38ed64bf6a1f01000000000000000083106129c9577a184f03e93ff9f4daa797ed6e38ed64bf6a1f01000000000000000083816129bf576129be61425e565b5b0492506040810190505b6d04ee2d6d415b85acef81000000008310612a06576d04ee2d6d415b85acef810000000083816129fc576129fb61425e565b5b0492506020810190505b662386f26fc100008310612a3557662386f26fc100008381612a2b57612a2a61425e565b5b0492506010810190505b6305f5e1008310612a5e576305f5e1008381612a5457612a5361425e565b5b0492506008810190505b6127108310612a83576127108381612a7957612a7861425e565b5b0492506004810190505b60648310612aa65760648381612a9c57612a9b61425e565b5b0492506002810190505b600a8310612ab5576001810190505b80915050919050565b6040518060a0016040528060008152602001600073ffffffffffffffffffffffffffffffffffffffff168152602001600073ffffffffffffffffffffffffffffffffffffffff168152602001600081526020016000151581525090565b6000604051905090565b600080fd5b600080fd5b60007fffffffff0000000000000000000000000000000000000000000000000000000082169050919050565b612b6481612b2f565b8114612b6f57600080fd5b50565b600081359050612b8181612b5b565b92915050565b600060208284031215612b9d57612b9c612b25565b5b6000612bab84828501612b72565b91505092915050565b60008115159050919050565b612bc981612bb4565b82525050565b6000602082019050612be46000830184612bc0565b92915050565b600081519050919050565b600082825260208201905092915050565b60005b83811015612c24578082015181840152602081019050612c09565b60008484015250505050565b6000601f19601f8301169050919050565b6000612c4c82612bea565b612c568185612bf5565b9350612c66818560208601612c06565b612c6f81612c30565b840191505092915050565b60006020820190508181036000830152612c948184612c41565b905092915050565b6000819050919050565b612caf81612c9c565b8114612cba57600080fd5b50565b600081359050612ccc81612ca6565b92915050565b600060208284031215612ce857612ce7612b25565b5b6000612cf684828501612cbd565b91505092915050565b600073ffffffffffffffffffffffffffffffffffffffff82169050919050565b6000612d2a82612cff565b9050919050565b612d3a81612d1f565b82525050565b6000602082019050612d556000830184612d31565b92915050565b612d6481612d1f565b8114612d6f57600080fd5b50565b600081359050612d8181612d5b565b92915050565b60008060408385031215612d9e57612d9d612b25565b5b6000612dac85828601612d72565b9250506020612dbd85828601612cbd565b9150509250929050565b612dd081612c9c565b82525050565b6000602082019050612deb6000830184612dc7565b92915050565b600080600060608486031215612e0a57612e09612b25565b5b6000612e1886828701612d72565b9350506020612e2986828701612d72565b9250506040612e3a86828701612cbd565b9150509250925092565b600081519050919050565b600082825260208201905092915050565b6000819050602082019050919050565b612e7981612c9c565b82525050565b6000612e8a82612cff565b9050919050565b612e9a81612e7f565b82525050565b612ea981612bb4565b82525050565b60a082016000820151612ec56000850182612e70565b506020820151612ed86020850182612e91565b506040820151612eeb6040850182612e91565b506060820151612efe6060850182612e70565b506080820151612f116080850182612ea0565b50505050565b6000612f238383612eaf565b60a08301905092915050565b6000602082019050919050565b6000612f4782612e44565b612f518185612e4f565b9350612f5c83612e60565b8060005b83811015612f8d578151612f748882612f17565b9750612f7f83612f2f565b925050600181019050612f60565b5085935050505092915050565b60006020820190508181036000830152612fb48184612f3c565b905092915050565b600060208284031215612fd257612fd1612b25565b5b6000612fe084828501612d72565b91505092915050565b600080fd5b600080fd5b7f4e487b7100000000000000000000000000000000000000000000000000000000600052604160045260246000fd5b61302b82612c30565b810181811067ffffffffffffffff8211171561304a57613049612ff3565b5b80604052505050565b600061305d612b1b565b90506130698282613022565b919050565b600067ffffffffffffffff82111561308957613088612ff3565b5b61309282612c30565b9050602081019050919050565b82818337600083830152505050565b60006130c16130bc8461306e565b613053565b9050828152602081018484840111156130dd576130dc612fee565b5b6130e884828561309f565b509392505050565b600082601f83011261310557613104612fe9565b5b81356131158482602086016130ae565b91505092915050565b6000806040838503121561313557613134612b25565b5b600083013567ffffffffffffffff81111561315357613152612b2a565b5b61315f858286016130f0565b925050602061317085828601612cbd565b9150509250929050565b6000806040838503121561319157613190612b25565b5b600061319f85828601612cbd565b92505060206131b085828601612cbd565b9150509250929050565b6131c381612bb4565b81146131ce57600080fd5b50565b6000813590506131e0816131ba565b92915050565b600080604083850312156131fd576131fc612b25565b5b600061320b85828601612d72565b925050602061321c858286016131d1565b9150509250929050565b600067ffffffffffffffff82111561324157613240612ff3565b5b61324a82612c30565b9050602081019050919050565b600061326a61326584613226565b613053565b90508281526020810184848401111561328657613285612fee565b5b61329184828561309f565b509392505050565b600082601f8301126132ae576132ad612fe9565b5b81356132be848260208601613257565b91505092915050565b600080600080608085870312156132e1576132e0612b25565b5b60006132ef87828801612d72565b945050602061330087828801612d72565b935050604061331187828801612cbd565b925050606085013567ffffffffffffffff81111561333257613331612b2a565b5b61333e87828801613299565b91505092959194509250565b6000806040838503121561336157613360612b25565b5b600061336f85828601612d72565b925050602061338085828601612d72565b9150509250929050565b7f4e487b7100000000000000000000000000000000000000000000000000000000600052602260045260246000fd5b600060028204905060018216806133d157607f821691505b6020821081036133e4576133e361338a565b5b50919050565b7f4552433732313a20617070726f76616c20746f2063757272656e74206f776e6560008201527f7200000000000000000000000000000000000000000000000000000000000000602082015250565b6000613446602183612bf5565b9150613451826133ea565b604082019050919050565b6000602082019050818103600083015261347581613439565b9050919050565b7f4552433732313a20617070726f76652063616c6c6572206973206e6f7420746f60008201527f6b656e206f776e6572206f7220617070726f76656420666f7220616c6c000000602082015250565b60006134d8603d83612bf5565b91506134e38261347c565b604082019050919050565b60006020820190508181036000830152613507816134cb565b9050919050565b7f4552433732313a2063616c6c6572206973206e6f7420746f6b656e206f776e6560008201527f72206f7220617070726f76656400000000000000000000000000000000000000602082015250565b600061356a602d83612bf5565b91506135758261350e565b604082019050919050565b600060208201905081810360008301526135998161355d565b9050919050565b7f4e487b7100000000000000000000000000000000000000000000000000000000600052601160045260246000fd5b60006135da82612c9c565b91506135e583612c9c565b92508282019050808211156135fd576135fc6135a0565b5b92915050565b600061360e82612c9c565b91507fffffffffffffffffffffffffffffffffffffffffffffffffffffffffffffffff82036136405761363f6135a0565b5b600182019050919050565b7f4e487b7100000000000000000000000000000000000000000000000000000000600052603260045260246000fd5b7f4552433732313a20696e76616c696420746f6b656e2049440000000000000000600082015250565b60006136b0601883612bf5565b91506136bb8261367a565b602082019050919050565b600060208201905081810360008301526136df816136a3565b9050919050565b7f4552433732313a2061646472657373207a65726f206973206e6f74206120766160008201527f6c6964206f776e65720000000000000000000000000000000000000000000000602082015250565b6000613742602983612bf5565b915061374d826136e6565b604082019050919050565b6000602082019050818103600083015261377181613735565b9050919050565b7f4f6e6c79206974656d2063616e20706572666f726d2074686973206f7061726160008201527f74696f6e20000000000000000000000000000000000000000000000000000000602082015250565b60006137d4602583612bf5565b91506137df82613778565b604082019050919050565b60006020820190508181036000830152613803816137c7565b9050919050565b7f5072696365206d75737420626520657175616c20746f206c697374696e67207060008201527f7269636500000000000000000000000000000000000000000000000000000000602082015250565b6000613866602483612bf5565b91506138718261380a565b604082019050919050565b6000602082019050818103600083015261389581613859565b9050919050565b60006138a782612c9c565b91506138b283612c9c565b92508282039050818111156138ca576138c96135a0565b5b92915050565b7f706c65617365207375626d6974207468652061736b696e67207072696365206960008201527f6e206f7264657220746f20636f6d706c65746520746865207075726368617365602082015250565b600061392c604083612bf5565b9150613937826138d0565b604082019050919050565b6000602082019050818103600083015261395b8161391f565b9050919050565b600081905092915050565b600061397882612bea565b6139828185613962565b9350613992818560208601612c06565b80840191505092915050565b60006139aa828561396d565b91506139b6828461396d565b91508190509392505050565b7f4552433732313a207472616e736665722066726f6d20696e636f72726563742060008201527f6f776e6572000000000000000000000000000000000000000000000000000000602082015250565b6000613a1e602583612bf5565b9150613a29826139c2565b604082019050919050565b60006020820190508181036000830152613a4d81613a11565b9050919050565b7f4552433732313a207472616e7366657220746f20746865207a65726f2061646460008201527f7265737300000000000000000000000000000000000000000000000000000000602082015250565b6000613ab0602483612bf5565b9150613abb82613a54565b604082019050919050565b60006020820190508181036000830152613adf81613aa3565b9050919050565b7f4552433732313a206d696e7420746f20746865207a65726f2061646472657373600082015250565b6000613b1c602083612bf5565b9150613b2782613ae6565b602082019050919050565b60006020820190508181036000830152613b4b81613b0f565b9050919050565b7f4552433732313a20746f6b656e20616c7265616479206d696e74656400000000600082015250565b6000613b88601c83612bf5565b9150613b9382613b52565b602082019050919050565b60006020820190508181036000830152613bb781613b7b565b9050919050565b7f45524337323155524953746f726167653a2055524920736574206f66206e6f6e60008201527f6578697374656e7420746f6b656e000000000000000000000000000000000000602082015250565b6000613c1a602e83612bf5565b9150613c2582613bbe565b604082019050919050565b60006020820190508181036000830152613c4981613c0d565b9050919050565b60008190508160005260206000209050919050565b60006020601f8301049050919050565b600082821b905092915050565b600060088302613cb27fffffffffffffffffffffffffffffffffffffffffffffffffffffffffffffffff82613c75565b613cbc8683613c75565b95508019841693508086168417925050509392505050565b6000819050919050565b6000613cf9613cf4613cef84612c9c565b613cd4565b612c9c565b9050919050565b6000819050919050565b613d1383613cde565b613d27613d1f82613d00565b848454613c82565b825550505050565b600090565b613d3c613d2f565b613d47818484613d0a565b505050565b5b81811015613d6b57613d60600082613d34565b600181019050613d4d565b5050565b601f821115613db057613d8181613c50565b613d8a84613c65565b81016020851015613d99578190505b613dad613da585613c65565b830182613d4c565b50505b505050565b600082821c905092915050565b6000613dd360001984600802613db5565b1980831691505092915050565b6000613dec8383613dc2565b9150826002028217905092915050565b613e0582612bea565b67ffffffffffffffff811115613e1e57613e1d612ff3565b5b613e2882546133b9565b613e33828285613d6f565b600060209050601f831160018114613e665760008415613e54578287015190505b613e5e8582613de0565b865550613ec6565b601f198416613e7486613c50565b60005b82811015613e9c57848901518255600182019150602085019450602081019050613e77565b86831015613eb95784890151613eb5601f891682613dc2565b8355505b6001600288020188555050505b505050505050565b7f7072696365206d75737420626520616c206c6573742031000000000000000000600082015250565b6000613f04601783612bf5565b9150613f0f82613ece565b602082019050919050565b60006020820190508181036000830152613f3381613ef7565b9050919050565b7f50726963206d75737420626520657175616c20746f206c697374696e6720707260008201527f6963650000000000000000000000000000000000000000000000000000000000602082015250565b6000613f96602383612bf5565b9150613fa182613f3a565b604082019050919050565b60006020820190508181036000830152613fc581613f89565b9050919050565b6000608082019050613fe16000830187612d31565b613fee6020830186612d31565b613ffb6040830185612dc7565b6140086060830184612bc0565b95945050505050565b7f436f756e7465723a2064656372656d656e74206f766572666c6f770000000000600082015250565b6000614047601b83612bf5565b915061405282614011565b602082019050919050565b600060208201905081810360008301526140768161403a565b9050919050565b7f4552433732313a20617070726f766520746f2063616c6c657200000000000000600082015250565b60006140b3601983612bf5565b91506140be8261407d565b602082019050919050565b600060208201905081810360008301526140e2816140a6565b9050919050565b7f4552433732313a207472616e7366657220746f206e6f6e20455243373231526560008201527f63656976657220696d706c656d656e7465720000000000000000000000000000602082015250565b6000614145603283612bf5565b9150614150826140e9565b604082019050919050565b6000602082019050818103600083015261417481614138565b9050919050565b600081519050919050565b600082825260208201905092915050565b60006141a28261417b565b6141ac8185614186565b93506141bc818560208601612c06565b6141c581612c30565b840191505092915050565b60006080820190506141e56000830187612d31565b6141f26020830186612d31565b6141ff6040830185612dc7565b81810360608301526142118184614197565b905095945050505050565b60008151905061422b81612b5b565b92915050565b60006020828403121561424757614246612b25565b5b60006142558482850161421c565b91505092915050565b7f4e487b7100000000000000000000000000000000000000000000000000000000600052601260045260246000fdfea2646970667358221220c5a946660015e61b5fa1d3bce7cd0d704c1624e9ed04b9d66485e13325c67a7064736f6c63430008110033",
  "linkReferences": {},
  "deployedLinkReferences": {}
}